/*
 * Copyright (C) 2023 Hedera Hashgraph, LLC
 *
 * Licensed under the Apache License, Version 2.0 (the "License");
 * you may not use this file except in compliance with the License.
 * You may obtain a copy of the License at
 *
 *      http://www.apache.org/licenses/LICENSE-2.0
 *
 * Unless required by applicable law or agreed to in writing, software
 * distributed under the License is distributed on an "AS IS" BASIS,
 * WITHOUT WARRANTIES OR CONDITIONS OF ANY KIND, either express or implied.
 * See the License for the specific language governing permissions and
 * limitations under the License.
 */

package com.hedera.services.store.contracts.precompile;

import static com.hedera.services.store.contracts.precompile.HTSTestsUtil.failResult;
import static com.hedera.services.store.contracts.precompile.HTSTestsUtil.successResult;
import static com.hedera.services.store.contracts.precompile.impl.TokenUpdatePrecompile.decodeUpdateTokenInfo;
import static com.hedera.services.store.contracts.precompile.impl.TokenUpdatePrecompile.decodeUpdateTokenInfoV2;
import static com.hedera.services.store.contracts.precompile.impl.TokenUpdatePrecompile.decodeUpdateTokenInfoV3;
import static com.hederahashgraph.api.proto.java.ResponseCodeEnum.FAIL_INVALID;
import static com.hederahashgraph.api.proto.java.ResponseCodeEnum.OK;
import static java.util.function.UnaryOperator.identity;
import static org.junit.jupiter.api.Assertions.assertEquals;
import static org.junit.jupiter.api.Assertions.assertNull;
import static org.mockito.ArgumentMatchers.any;
import static org.mockito.BDDMockito.given;

import com.hedera.mirror.web3.evm.properties.MirrorNodeEvmProperties;
import com.hedera.mirror.web3.evm.store.contract.HederaEvmStackedWorldStateUpdater;
import com.hedera.node.app.service.evm.contracts.execution.HederaBlockValues;
import com.hedera.node.app.service.evm.store.contracts.precompile.EvmHTSPrecompiledContract;
import com.hedera.node.app.service.evm.store.contracts.precompile.EvmInfrastructureFactory;
import com.hedera.services.fees.FeeCalculator;
import com.hedera.services.fees.HbarCentExchange;
import com.hedera.services.fees.calculation.UsagePricesProvider;
import com.hedera.services.fees.pricing.AssetsLoader;
import com.hedera.services.store.contracts.precompile.impl.TokenUpdatePrecompile;
import com.hedera.services.store.contracts.precompile.utils.PrecompilePricingUtils;
import com.hedera.services.txns.validation.ContextOptionValidator;
import com.hedera.services.utils.accessors.AccessorFactory;
import com.hederahashgraph.api.proto.java.AccountID;
import com.hederahashgraph.api.proto.java.ExchangeRate;
import com.hederahashgraph.api.proto.java.Timestamp;
import com.hederahashgraph.api.proto.java.TokenUpdateTransactionBody;
import com.hederahashgraph.api.proto.java.TransactionBody;
import java.time.Instant;
import java.util.Set;
import org.apache.tuweni.bytes.Bytes;
import org.hyperledger.besu.datatypes.Wei;
import org.hyperledger.besu.evm.frame.MessageFrame;
import org.junit.jupiter.api.AfterEach;
import org.junit.jupiter.api.BeforeEach;
import org.junit.jupiter.api.Test;
import org.junit.jupiter.api.extension.ExtendWith;
import org.mockito.Mock;
import org.mockito.MockedStatic;
import org.mockito.Mockito;
import org.mockito.junit.jupiter.MockitoExtension;

@ExtendWith(MockitoExtension.class)
class TokenUpdatePrecompileTest {

    private static final Bytes UPDATE_FUNGIBLE_TOKEN_INPUT = Bytes.fromHexString(
            "0x2cccc36f0000000000000000000000000000000000000000000000000000000000000b650000000000000000000000000000000000000000000000000000000000000040000000000000000000000000000000000000000000000000000000000000016000000000000000000000000000000000000000000000000000000000000001a00000000000000000000000000000000000000000000000000000000000000b6100000000000000000000000000000000000000000000000000000000000001e0000000000000000000000000000000000000000000000000000000000000000000000000000000000000000000000000000000000000000000000000000000000000000000000000000000000000000000000000000000000000000000000000000000000000000000000000000000000000000000000000000000000000022000000000000000000000000000000000000000000000000000000000000000000000000000000000000000000000000000000000000000000000000000000b6100000000000000000000000000000000000000000000000000000000007a1200000000000000000000000000000000000000000000000000000000000000000a637573746f6d4e616d65000000000000000000000000000000000000000000000000000000000000000000000000000000000000000000000000000000000002cea900000000000000000000000000000000000000000000000000000000000000000000000000000000000000000000000000000000000000000000000000054f6d656761000000000000000000000000000000000000000000000000000000000000000000000000000000000000000000000000000000000000000000000500000000000000000000000000000000000000000000000000000000000000a000000000000000000000000000000000000000000000000000000000000001e0000000000000000000000000000000000000000000000000000000000000034000000000000000000000000000000000000000000000000000000000000004600000000000000000000000000000000000000000000000000000000000000580000000000000000000000000000000000000000000000000000000000000000300000000000000000000000000000000000000000000000000000000000000400000000000000000000000000000000000000000000000000000000000000000000000000000000000000000000000000000000000000000000000000000000000000000000000000000000000000000000000000000000000000000000000a000000000000000000000000000000000000000000000000000000000000000e0000000000000000000000000000000000000000000000000000000000000000000000000000000000000000000000000000000000000000000000000000000205d2a3c5dd3e65bde502cacc8bc88a12599712d3d7f6d96aa0db12e140740a65e0000000000000000000000000000000000000000000000000000000000000000000000000000000000000000000000000000000000000000000000000000000c00000000000000000000000000000000000000000000000000000000000000400000000000000000000000000000000000000000000000000000000000000000000000000000000000000000000000000000000000000000000000000000000000000000000000000000000000000000000000000000000000000000000000a000000000000000000000000000000000000000000000000000000000000000c00000000000000000000000000000000000000000000000000000000000000000000000000000000000000000000000000000000000000000000000000000000000000000000000000000000000000000000000000000000000000000000000210324e3e6c5a305f98e36ee89783d1aedcf07140780b5bb16d5d2aa7911ccdf8bdf000000000000000000000000000000000000000000000000000000000000000000000000000000000000000000000000000000000000000000000000000010000000000000000000000000000000000000000000000000000000000000004000000000000000000000000000000000000000000000000000000000000000000000000000000000000000000000000000000000000000000000000000000b6400000000000000000000000000000000000000000000000000000000000000a000000000000000000000000000000000000000000000000000000000000000c00000000000000000000000000000000000000000000000000000000000000000000000000000000000000000000000000000000000000000000000000000000000000000000000000000000000000000000000000000000000000000000000000000000000000000000000000000000000000000000000000000000000000040000000000000000000000000000000000000000000000000000000000000004000000000000000000000000000000000000000000000000000000000000000000000000000000000000000000000000000000000000000000000000000000b6400000000000000000000000000000000000000000000000000000000000000a000000000000000000000000000000000000000000000000000000000000000c0000000000000000000000000000000000000000000000000000000000000000000000000000000000000000000000000000000000000000000000000000000000000000000000000000000000000000000000000000000000000000000000000000000000000000000000000000000000000000000000000000000000000002000000000000000000000000000000000000000000000000000000000000000400000000000000000000000000000000000000000000000000000000000000000000000000000000000000000000000000000000000000000000000000000000000000000000000000000000000000000000000000000000000000000000000a000000000000000000000000000000000000000000000000000000000000000c00000000000000000000000000000000000000000000000000000000000000b6400000000000000000000000000000000000000000000000000000000000000000000000000000000000000000000000000000000000000000000000000000000");
    private static final Bytes UPDATE_FUNGIBLE_TOKEN_INPUT_WITH_NO_TREASURY_SET = Bytes.fromHexString(
            "0x2cccc36f00000000000000000000000000000000000000000000000000000000000000000000000000000000000000000000000000000000000000000000000000000040000000000000000000000000000000000000000000000000000000000000016000000000000000000000000000000000000000000000000000000000000001a0000000000000000000000000000000000000000000000000000000000000000000000000000000000000000000000000000000000000000000000000000001e00000000000000000000000000000000000000000000000000000000000000000000000000000000000000000000000000000000000000000000000000000000000000000000000000000000000000000000000000000000000000000000000000000000000000000000000000000000000000000000000000000000000000220000000000000000000000000000000000000000000000000000000000000000000000000000000000000000000000000000000000000000000000000000003ea00000000000000000000000000000000000000000000000000000000007a1200000000000000000000000000000000000000000000000000000000000000000a637573746f6d4e616d65000000000000000000000000000000000000000000000000000000000000000000000000000000000000000000000000000000000002cea900000000000000000000000000000000000000000000000000000000000000000000000000000000000000000000000000000000000000000000000000054f6d656761000000000000000000000000000000000000000000000000000000000000000000000000000000000000000000000000000000000000000000000500000000000000000000000000000000000000000000000000000000000000a000000000000000000000000000000000000000000000000000000000000001e0000000000000000000000000000000000000000000000000000000000000034000000000000000000000000000000000000000000000000000000000000004600000000000000000000000000000000000000000000000000000000000000580000000000000000000000000000000000000000000000000000000000000000300000000000000000000000000000000000000000000000000000000000000400000000000000000000000000000000000000000000000000000000000000000000000000000000000000000000000000000000000000000000000000000000000000000000000000000000000000000000000000000000000000000000000a000000000000000000000000000000000000000000000000000000000000000e000000000000000000000000000000000000000000000000000000000000000000000000000000000000000000000000000000000000000000000000000000020fe23738800e207f0224ad1f4f1df64b5333bf5232cf439ecf96eb222fc4c1e400000000000000000000000000000000000000000000000000000000000000000000000000000000000000000000000000000000000000000000000000000000c00000000000000000000000000000000000000000000000000000000000000400000000000000000000000000000000000000000000000000000000000000000000000000000000000000000000000000000000000000000000000000000000000000000000000000000000000000000000000000000000000000000000000a000000000000000000000000000000000000000000000000000000000000000c000000000000000000000000000000000000000000000000000000000000000000000000000000000000000000000000000000000000000000000000000000000000000000000000000000000000000000000000000000000000000000000002103a30f81e84b98f183256c015f52686d0eac88301ed253747172d06fd77be47a9b0000000000000000000000000000000000000000000000000000000000000000000000000000000000000000000000000000000000000000000000000000100000000000000000000000000000000000000000000000000000000000000040000000000000000000000000000000000000000000000000000000000000000000000000000000000000000000000000000000000000000000000000000003ed00000000000000000000000000000000000000000000000000000000000000a000000000000000000000000000000000000000000000000000000000000000c000000000000000000000000000000000000000000000000000000000000000000000000000000000000000000000000000000000000000000000000000000000000000000000000000000000000000000000000000000000000000000000000000000000000000000000000000000000000000000000000000000000000000400000000000000000000000000000000000000000000000000000000000000040000000000000000000000000000000000000000000000000000000000000000000000000000000000000000000000000000000000000000000000000000003ed00000000000000000000000000000000000000000000000000000000000000a000000000000000000000000000000000000000000000000000000000000000c0000000000000000000000000000000000000000000000000000000000000000000000000000000000000000000000000000000000000000000000000000000000000000000000000000000000000000000000000000000000000000000000000000000000000000000000000000000000000000000000000000000000000002000000000000000000000000000000000000000000000000000000000000000400000000000000000000000000000000000000000000000000000000000000000000000000000000000000000000000000000000000000000000000000000000000000000000000000000000000000000000000000000000000000000000000a000000000000000000000000000000000000000000000000000000000000000c000000000000000000000000000000000000000000000000000000000000003ed00000000000000000000000000000000000000000000000000000000000000000000000000000000000000000000000000000000000000000000000000000000");

    private static final Bytes UPDATE_FUNGIBLE_TOKEN_INPUT_V2 = Bytes.fromHexString(
            "0x18370d3400000000000000000000000000000000000000000000000000000000000000010000000000000000000000000000000000000000000000000000000000000040000000000000000000000000000000000000000000000000000000000000016000000000000000000000000000000000000000000000000000000000000001a00000000000000000000000000000000000000000000000000000000000000b6100000000000000000000000000000000000000000000000000000000000001e000000000000000000000000000000000000000000000000000000000000000010000000000000000000000000000000000000000000000007fffffffffffffff0000000000000000000000000000000000000000000000000000000000000000000000000000000000000000000000000000000000000000000000000000022000000000000000000000000000000000000000000000000000000000000000000000000000000000000000000000000000000000000000000000000000000b6100000000000000000000000000000000000000000000000000000000007a1200000000000000000000000000000000000000000000000000000000000000000a637573746f6d4e616d65000000000000000000000000000000000000000000000000000000000000000000000000000000000000000000000000000000000002cea900000000000000000000000000000000000000000000000000000000000000000000000000000000000000000000000000000000000000000000000000054f6d656761000000000000000000000000000000000000000000000000000000000000000000000000000000000000000000000000000000000000000000000200000000000000000000000000000000000000000000000000000000000000400000000000000000000000000000000000000000000000000000000000000160000000000000000000000000000000000000000000000000000000000000000100000000000000000000000000000000000000000000000000000000000000400000000000000000000000000000000000000000000000000000000000000001000000000000000000000000000000000000000000000000000000000000000000000000000000000000000000000000000000000000000000000000000000a000000000000000000000000000000000000000000000000000000000000000c0000000000000000000000000000000000000000000000000000000000000000000000000000000000000000000000000000000000000000000000000000000000000000000000000000000000000000000000000000000000000000000000000000000000000000000000000000000000000000000000000000000000000005000000000000000000000000000000000000000000000000000000000000000400000000000000000000000000000000000000000000000000000000000000000000000000000000000000000000000000000000000000000000000000000000100000000000000000000000000000000000000000000000000000000000000a000000000000000000000000000000000000000000000000000000000000000c0000000000000000000000000000000000000000000000000000000000000000000000000000000000000000000000000000000000000000000000000000000000000000000000000000000000000000000000000000000000000000000000000");
    private static final Bytes UPDATE_FUNGIBLE_TOKEN_INPUT_V3 = Bytes.fromHexString(
            "0x7d305cfa00000000000000000000000000000000000000000000000000000000000000010000000000000000000000000000000000000000000000000000000000000040000000000000000000000000000000000000000000000000000000000000016000000000000000000000000000000000000000000000000000000000000001a00000000000000000000000000000000000000000000000000000000000000b6100000000000000000000000000000000000000000000000000000000000001e000000000000000000000000000000000000000000000000000000000000000010000000000000000000000000000000000000000000000007fffffffffffffff0000000000000000000000000000000000000000000000000000000000000000000000000000000000000000000000000000000000000000000000000000022000000000000000000000000000000000000000000000000000000000000000000000000000000000000000000000000000000000000000000000000000000b6100000000000000000000000000000000000000000000000000000000007a1200000000000000000000000000000000000000000000000000000000000000000a637573746f6d4e616d65000000000000000000000000000000000000000000000000000000000000000000000000000000000000000000000000000000000002cea900000000000000000000000000000000000000000000000000000000000000000000000000000000000000000000000000000000000000000000000000054f6d656761000000000000000000000000000000000000000000000000000000000000000000000000000000000000000000000000000000000000000000000200000000000000000000000000000000000000000000000000000000000000400000000000000000000000000000000000000000000000000000000000000160000000000000000000000000000000000000000000000000000000000000000100000000000000000000000000000000000000000000000000000000000000400000000000000000000000000000000000000000000000000000000000000001000000000000000000000000000000000000000000000000000000000000000000000000000000000000000000000000000000000000000000000000000000a000000000000000000000000000000000000000000000000000000000000000c0000000000000000000000000000000000000000000000000000000000000000000000000000000000000000000000000000000000000000000000000000000000000000000000000000000000000000000000000000000000000000000000000000000000000000000000000000000000000000000000000000000000000005000000000000000000000000000000000000000000000000000000000000000400000000000000000000000000000000000000000000000000000000000000000000000000000000000000000000000000000000000000000000000000000000100000000000000000000000000000000000000000000000000000000000000a000000000000000000000000000000000000000000000000000000000000000c0000000000000000000000000000000000000000000000000000000000000000000000000000000000000000000000000000000000000000000000000000000000000000000000000000000000000000000000000000000000000000000000000");

    private static final int CENTS_RATE = 12;
    private static final int HBAR_RATE = 1;

    @Mock
    private HederaEvmStackedWorldStateUpdater worldUpdater;

    @Mock
    private MessageFrame frame;

    @Mock
    private HbarCentExchange exchange;

    @Mock
    private ExchangeRate exchangeRate;

    @Mock
    private SyntheticTxnFactory syntheticTxnFactory;

    @Mock
    private EvmInfrastructureFactory infrastructureFactory;

    @Mock
    private EvmHTSPrecompiledContract evmHTSPrecompiledContract;

    @Mock
    private AssetsLoader assetLoader;

    @Mock
    private FeeCalculator feeCalculator;

    @Mock
    private UsagePricesProvider resourceCosts;

    @Mock
    private TokenUpdateLogic updateLogic;

    @Mock
    private MirrorNodeEvmProperties evmProperties;

    @Mock
    private AccessorFactory accessorFactory;

    @Mock
    private MirrorNodeEvmProperties mirrorNodeEvmProperties;

    @Mock
    private ContextOptionValidator contextOptionValidator;

    private final TokenUpdateWrapper updateWrapper = HTSTestsUtil.createFungibleTokenUpdateWrapperWithKeys(null);

    private final TransactionBody transactionBody = TransactionBody.newBuilder()
            .setTokenUpdate(TokenUpdateTransactionBody.newBuilder())
            .build();

    private HTSPrecompiledContract subject;

    private MockedStatic<TokenUpdatePrecompile> tokenUpdatePrecompileStatic;

    @Mock
    private PrecompileMapper precompileMapper;

    @BeforeEach
    void setUp() {
        final PrecompilePricingUtils pricingUtils =
                new PrecompilePricingUtils(assetLoader, exchange, feeCalculator, resourceCosts, accessorFactory);

        tokenUpdatePrecompileStatic = Mockito.mockStatic(TokenUpdatePrecompile.class);

        TokenUpdatePrecompile tokenUpdatePrecompile = new TokenUpdatePrecompile(
                pricingUtils, updateLogic, syntheticTxnFactory, mirrorNodeEvmProperties, contextOptionValidator);

        precompileMapper = new PrecompileMapper(Set.of(tokenUpdatePrecompile));

        subject = new HTSPrecompiledContract(
                infrastructureFactory, evmProperties, precompileMapper, evmHTSPrecompiledContract);
    }

    @AfterEach
    void closeMocks() {
        if (!tokenUpdatePrecompileStatic.isClosed()) {
            tokenUpdatePrecompileStatic.close();
        }
    }

    @Test
    void computeCallsSuccessfullyForUpdateFungibleToken() {
        given(worldUpdater.permissivelyUnaliased(any()))
                .willAnswer(invocationOnMock -> invocationOnMock.getArgument(0));
        givenFrameContext();
        given(frame.getBlockValues()).willReturn(new HederaBlockValues(10L, 123L, Instant.ofEpochSecond(123L)));
        given(frame.getInputData()).willReturn(UPDATE_FUNGIBLE_TOKEN_INPUT);
        givenMinimalContextForSuccessfulCall();
        givenPricingUtilsContext();
        given(updateLogic.validate(any())).willReturn(OK);
        tokenUpdatePrecompileStatic
                .when(() -> decodeUpdateTokenInfo(any(), any()))
                .thenReturn(updateWrapper);
        given(syntheticTxnFactory.createTokenUpdate(updateWrapper))
                .willReturn(TransactionBody.newBuilder().setTokenUpdate(TokenUpdateTransactionBody.newBuilder()));
        // when
        subject.prepareFields(frame);
        subject.prepareComputation(UPDATE_FUNGIBLE_TOKEN_INPUT, a -> a);
        subject.getPrecompile().getMinimumFeeInTinybars(Timestamp.getDefaultInstance(), transactionBody);
        final var result = subject.computeInternal(frame);
        // then
        assertEquals(successResult, result);
    }

    @Test
    void computeCallsSuccessfullyForUpdateFungibleTokenV2() {
        // given
        given(worldUpdater.permissivelyUnaliased(any()))
                .willAnswer(invocationOnMock -> invocationOnMock.getArgument(0));
        givenFrameContext();
        given(frame.getBlockValues()).willReturn(new HederaBlockValues(10L, 123L, Instant.ofEpochSecond(123L)));
        given(frame.getInputData()).willReturn(UPDATE_FUNGIBLE_TOKEN_INPUT_V2);
        givenMinimalContextForSuccessfulCall();
        givenPricingUtilsContext();
        given(updateLogic.validate(any())).willReturn(OK);
        tokenUpdatePrecompileStatic
                .when(() -> decodeUpdateTokenInfoV2(any(), any()))
                .thenReturn(updateWrapper);
        given(syntheticTxnFactory.createTokenUpdate(updateWrapper))
                .willReturn(TransactionBody.newBuilder().setTokenUpdate(TokenUpdateTransactionBody.newBuilder()));
        // when
        subject.prepareFields(frame);
        subject.prepareComputation(UPDATE_FUNGIBLE_TOKEN_INPUT_V2, a -> a);
        subject.getPrecompile().getMinimumFeeInTinybars(Timestamp.getDefaultInstance(), transactionBody);
        final var result = subject.computeInternal(frame);
        // then
        assertEquals(successResult, result);
    }

    @Test
    void computeCallsSuccessfullyForUpdateFungibleTokenV3() {
        // given
        given(worldUpdater.permissivelyUnaliased(any()))
                .willAnswer(invocationOnMock -> invocationOnMock.getArgument(0));
        givenFrameContext();
        given(frame.getBlockValues()).willReturn(new HederaBlockValues(10L, 123L, Instant.ofEpochSecond(123L)));
        given(frame.getInputData()).willReturn(UPDATE_FUNGIBLE_TOKEN_INPUT_V3);
        givenMinimalContextForSuccessfulCall();
        givenPricingUtilsContext();
        given(updateLogic.validate(any())).willReturn(OK);
        tokenUpdatePrecompileStatic
                .when(() -> decodeUpdateTokenInfoV3(any(), any()))
                .thenReturn(updateWrapper);
        given(syntheticTxnFactory.createTokenUpdate(updateWrapper))
                .willReturn(TransactionBody.newBuilder().setTokenUpdate(TokenUpdateTransactionBody.newBuilder()));
        // when
        subject.prepareFields(frame);
        subject.prepareComputation(UPDATE_FUNGIBLE_TOKEN_INPUT_V3, a -> a);
        subject.getPrecompile().getMinimumFeeInTinybars(Timestamp.getDefaultInstance(), transactionBody);
        final var result = subject.computeInternal(frame);
        // then
        assertEquals(successResult, result);
    }

    @Test
    void failsWithWrongValidityForUpdateFungibleToken() {
        // given
        given(worldUpdater.permissivelyUnaliased(any()))
                .willAnswer(invocationOnMock -> invocationOnMock.getArgument(0));
        givenFrameContext();
        givenMinimalContextForSuccessfulCall();
        given(worldUpdater.permissivelyUnaliased(any()))
                .willAnswer(invocationOnMock -> invocationOnMock.getArgument(0));
        given(updateLogic.validate(any())).willReturn(FAIL_INVALID);
        tokenUpdatePrecompileStatic
                .when(() -> decodeUpdateTokenInfo(any(), any()))
                .thenReturn(updateWrapper);
        given(syntheticTxnFactory.createTokenUpdate(updateWrapper))
                .willReturn(TransactionBody.newBuilder().setTokenUpdate(TokenUpdateTransactionBody.newBuilder()));
        // when
        subject.prepareFields(frame);
        subject.prepareComputation(UPDATE_FUNGIBLE_TOKEN_INPUT, a -> a);
        final var result = subject.computeInternal(frame);
        // then
        assertEquals(failResult, result);
    }

    @Test
    void failsWithWrongValidityForUpdateFungibleTokenV2() {
        // given
        givenFrameContext();
        givenMinimalContextForSuccessfulCall();
        given(worldUpdater.permissivelyUnaliased(any()))
                .willAnswer(invocationOnMock -> invocationOnMock.getArgument(0));
        given(updateLogic.validate(any())).willReturn(FAIL_INVALID);
        tokenUpdatePrecompileStatic
                .when(() -> decodeUpdateTokenInfoV2(any(), any()))
                .thenReturn(updateWrapper);
        given(syntheticTxnFactory.createTokenUpdate(updateWrapper))
                .willReturn(TransactionBody.newBuilder().setTokenUpdate(TokenUpdateTransactionBody.newBuilder()));
        // when
        subject.prepareFields(frame);
        subject.prepareComputation(UPDATE_FUNGIBLE_TOKEN_INPUT_V2, a -> a);
        final var result = subject.computeInternal(frame);
        // then
        assertEquals(failResult, result);
    }

    @Test
    void decodeFungibleUpdateInput() {
        tokenUpdatePrecompileStatic.close();
        final var decodedInput = decodeUpdateTokenInfo(UPDATE_FUNGIBLE_TOKEN_INPUT, identity());

        assertExpectedFungibleTokenUpdateStruct(decodedInput);
    }

    @Test
    void decodeFungibleUpdateInputWithNoTreasurySet() {
        tokenUpdatePrecompileStatic.close();
        final var decodedInput = decodeUpdateTokenInfo(UPDATE_FUNGIBLE_TOKEN_INPUT_WITH_NO_TREASURY_SET, identity());

        assertEquals("customName", decodedInput.name());
        assertEquals("Ω", decodedInput.symbol());
        assertNull(decodedInput.treasury());
        assertEquals("Omega", decodedInput.memo());
        assertEquals(8000000, decodedInput.expiry().autoRenewPeriod());
        assertEquals(
                AccountID.newBuilder().setAccountNum(1002L).build(),
                decodedInput.expiry().autoRenewAccount());
        assertEquals(0L, decodedInput.expiry().second());
    }

    @Test
    void decodeFungibleUpdateInputV2() {
        tokenUpdatePrecompileStatic.close();
        final var decodedInput = decodeUpdateTokenInfoV2(UPDATE_FUNGIBLE_TOKEN_INPUT_V2, identity());

        assertExpectedFungibleTokenUpdateStruct(decodedInput);
    }

    @Test
    void decodeFungibleUpdateInputV3() {
        tokenUpdatePrecompileStatic.close();
        final var decodedInput = decodeUpdateTokenInfoV3(UPDATE_FUNGIBLE_TOKEN_INPUT_V3, identity());

        assertExpectedFungibleTokenUpdateStruct(decodedInput);
    }

    private void assertExpectedFungibleTokenUpdateStruct(final TokenUpdateWrapper decodedInput) {
        assertEquals("customName", decodedInput.name());
        assertEquals("Ω", decodedInput.symbol());
        assertEquals(AccountID.newBuilder().setAccountNum(2913L).build(), decodedInput.treasury());
        assertEquals("Omega", decodedInput.memo());
        assertEquals(8000000, decodedInput.expiry().autoRenewPeriod());
        assertEquals(
                AccountID.newBuilder().setAccountNum(2913L).build(),
                decodedInput.expiry().autoRenewAccount());
        assertEquals(0L, decodedInput.expiry().second());
    }

    private void givenMinimalFrameContext() {
        given(frame.getSenderAddress()).willReturn(HTSTestsUtil.contractAddress);
        given(frame.getWorldUpdater()).willReturn(worldUpdater);
    }

    private void givenFrameContext() {
        givenMinimalFrameContext();
        given(frame.getRemainingGas()).willReturn(300L);
        given(frame.getValue()).willReturn(Wei.ZERO);
    }

    private void givenMinimalContextForSuccessfulCall() {
        given(worldUpdater.permissivelyUnaliased(any()))
                .willAnswer(invocationOnMock -> invocationOnMock.getArgument(0));
    }

    private void givenPricingUtilsContext() {
        given(exchange.rate(any())).willReturn(exchangeRate);
        given(exchangeRate.getCentEquiv()).willReturn(CENTS_RATE);
        given(exchangeRate.getHbarEquiv()).willReturn(HBAR_RATE);
    }
}
